{
  "_format": "hh-sol-artifact-1",
  "contractName": "ColdChainAlert",
  "sourceName": "contracts/ColdChainAlert.sol",
  "abi": [
    {
      "inputs": [
        {
          "internalType": "address",
          "name": "_roleManager",
          "type": "address"
        }
      ],
      "stateMutability": "nonpayable",
      "type": "constructor"
    },
    {
      "anonymous": false,
      "inputs": [
        {
          "indexed": false,
          "internalType": "string",
          "name": "batchId",
          "type": "string"
        },
        {
          "indexed": false,
          "internalType": "uint256",
          "name": "timestamp",
          "type": "uint256"
        },
        {
          "indexed": false,
          "internalType": "uint256",
          "name": "temperature",
          "type": "uint256"
        },
        {
          "indexed": true,
          "internalType": "address",
          "name": "reporter",
          "type": "address"
        }
      ],
      "name": "TemperatureViolation",
      "type": "event"
    },
    {
      "inputs": [],
      "name": "getTotalViolations",
      "outputs": [
        {
          "internalType": "uint256",
          "name": "",
          "type": "uint256"
        }
      ],
      "stateMutability": "view",
      "type": "function"
    },
    {
      "inputs": [
        {
          "internalType": "uint256",
          "name": "index",
          "type": "uint256"
        }
      ],
      "name": "getViolation",
      "outputs": [
        {
          "internalType": "string",
          "name": "",
          "type": "string"
        },
        {
          "internalType": "uint256",
          "name": "",
          "type": "uint256"
        },
        {
          "internalType": "uint256",
          "name": "",
          "type": "uint256"
        },
        {
          "internalType": "address",
          "name": "",
          "type": "address"
        }
      ],
      "stateMutability": "view",
      "type": "function"
    },
    {
      "inputs": [
        {
          "internalType": "string",
          "name": "batchId",
          "type": "string"
        },
        {
          "internalType": "uint256",
          "name": "temperature",
          "type": "uint256"
        }
      ],
      "name": "reportTemperature",
      "outputs": [],
      "stateMutability": "nonpayable",
      "type": "function"
    },
    {
      "inputs": [],
      "name": "roleManager",
      "outputs": [
        {
          "internalType": "address",
          "name": "",
          "type": "address"
        }
      ],
      "stateMutability": "view",
      "type": "function"
    },
    {
      "inputs": [
        {
          "internalType": "uint256",
          "name": "",
          "type": "uint256"
        }
      ],
      "name": "violations",
      "outputs": [
        {
          "internalType": "string",
          "name": "batchId",
          "type": "string"
        },
        {
          "internalType": "uint256",
          "name": "timestamp",
          "type": "uint256"
        },
        {
          "internalType": "uint256",
          "name": "temperature",
          "type": "uint256"
        },
        {
          "internalType": "address",
          "name": "reporter",
          "type": "address"
        }
      ],
      "stateMutability": "view",
      "type": "function"
    }
  ],
  "bytecode": "0x60806040523480156200001157600080fd5b5060405162001324380380620013248339818101604052810190620000379190620000e8565b806000806101000a81548173ffffffffffffffffffffffffffffffffffffffff021916908373ffffffffffffffffffffffffffffffffffffffff160217905550506200011a565b600080fd5b600073ffffffffffffffffffffffffffffffffffffffff82169050919050565b6000620000b08262000083565b9050919050565b620000c281620000a3565b8114620000ce57600080fd5b50565b600081519050620000e281620000b7565b92915050565b6000602082840312156200010157620001006200007e565b5b60006200011184828501620000d1565b91505092915050565b6111fa806200012a6000396000f3fe608060405234801561001057600080fd5b50600436106100565760003560e01c8062435da51461005b57806338a2ede6146100795780634c5765d1146100955780635d9cb8b1146100c8578063b995bb95146100e6575b600080fd5b610063610119565b60405161007091906107cf565b60405180910390f35b610093600480360381019061008e919061097a565b61013d565b005b6100af60048036038101906100aa91906109d6565b6103df565b6040516100bf9493929190610a91565b60405180910390f35b6100d0610536565b6040516100dd9190610add565b60405180910390f35b61010060048036038101906100fb91906109d6565b610543565b6040516101109493929190610a91565b60405180910390f35b60008054906101000a900473ffffffffffffffffffffffffffffffffffffffff1681565b600042905060008060008054906101000a900473ffffffffffffffffffffffffffffffffffffffff1673ffffffffffffffffffffffffffffffffffffffff1663489139c6866040518263ffffffff1660e01b815260040161019e9190610af8565b6040805180830381865afa1580156101ba573d6000803e3d6000fd5b505050506040513d601f19601f820116820180604052508101906101de9190610b2f565b91509150818410806101ef57508084115b156103d857600160405180608001604052808781526020018581526020018681526020013373ffffffffffffffffffffffffffffffffffffffff168152509080600181540180825580915050600190039060005260206000209060040201600090919091909150600082015181600001908161026b9190610d7b565b50602082015181600101556040820151816002015560608201518160030160006101000a81548173ffffffffffffffffffffffffffffffffffffffff021916908373ffffffffffffffffffffffffffffffffffffffff16021790555050503373ffffffffffffffffffffffffffffffffffffffff167fefc7d54865998f8799a416d67c01931f0b282fa05f42084accd1c8e3295c8d1986858760405161031393929190610e4d565b60405180910390a260006103268561062b565b6040516020016103369190610f5f565b604051602081830303815290604052905060008054906101000a900473ffffffffffffffffffffffffffffffffffffffff1673ffffffffffffffffffffffffffffffffffffffff1663b457d9613388846040518463ffffffff1660e01b81526004016103a493929190610fd8565b600060405180830381600087803b1580156103be57600080fd5b505af11580156103d2573d6000803e3d6000fd5b50505050505b5050505050565b6060600080600080600186815481106103fb576103fa611030565b5b906000526020600020906004020160405180608001604052908160008201805461042490610b9e565b80601f016020809104026020016040519081016040528092919081815260200182805461045090610b9e565b801561049d5780601f106104725761010080835404028352916020019161049d565b820191906000526020600020905b81548152906001019060200180831161048057829003601f168201915b5050505050815260200160018201548152602001600282015481526020016003820160009054906101000a900473ffffffffffffffffffffffffffffffffffffffff1673ffffffffffffffffffffffffffffffffffffffff1673ffffffffffffffffffffffffffffffffffffffff1681525050905080600001518160200151826040015183606001519450945094509450509193509193565b6000600180549050905090565b6001818154811061055357600080fd5b906000526020600020906004020160009150905080600001805461057690610b9e565b80601f01602080910402602001604051908101604052809291908181526020018280546105a290610b9e565b80156105ef5780601f106105c4576101008083540402835291602001916105ef565b820191906000526020600020905b8154815290600101906020018083116105d257829003601f168201915b5050505050908060010154908060020154908060030160009054906101000a900473ffffffffffffffffffffffffffffffffffffffff16905084565b606060008203610672576040518060400160405280600181526020017f30000000000000000000000000000000000000000000000000000000000000008152509050610789565b600082905060005b600082146106a457808061068d9061108e565b915050600a8261069d9190611105565b915061067a565b60008167ffffffffffffffff8111156106c0576106bf610819565b5b6040519080825280601f01601f1916602001820160405280156106f25781602001600182028036833780820191505090505b50905060008290505b6000861461078157600a866107109190611136565b603061071c9190611167565b60f81b828261072a9061119b565b9250828151811061073e5761073d611030565b5b60200101907effffffffffffffffffffffffffffffffffffffffffffffffffffffffffffff1916908160001a905350600a8661077a9190611105565b95506106fb565b819450505050505b919050565b600073ffffffffffffffffffffffffffffffffffffffff82169050919050565b60006107b98261078e565b9050919050565b6107c9816107ae565b82525050565b60006020820190506107e460008301846107c0565b92915050565b6000604051905090565b600080fd5b600080fd5b600080fd5b600080fd5b6000601f19601f8301169050919050565b7f4e487b7100000000000000000000000000000000000000000000000000000000600052604160045260246000fd5b61085182610808565b810181811067ffffffffffffffff821117156108705761086f610819565b5b80604052505050565b60006108836107ea565b905061088f8282610848565b919050565b600067ffffffffffffffff8211156108af576108ae610819565b5b6108b882610808565b9050602081019050919050565b82818337600083830152505050565b60006108e76108e284610894565b610879565b90508281526020810184848401111561090357610902610803565b5b61090e8482856108c5565b509392505050565b600082601f83011261092b5761092a6107fe565b5b813561093b8482602086016108d4565b91505092915050565b6000819050919050565b61095781610944565b811461096257600080fd5b50565b6000813590506109748161094e565b92915050565b60008060408385031215610991576109906107f4565b5b600083013567ffffffffffffffff8111156109af576109ae6107f9565b5b6109bb85828601610916565b92505060206109cc85828601610965565b9150509250929050565b6000602082840312156109ec576109eb6107f4565b5b60006109fa84828501610965565b91505092915050565b600081519050919050565b600082825260208201905092915050565b60005b83811015610a3d578082015181840152602081019050610a22565b60008484015250505050565b6000610a5482610a03565b610a5e8185610a0e565b9350610a6e818560208601610a1f565b610a7781610808565b840191505092915050565b610a8b81610944565b82525050565b60006080820190508181036000830152610aab8187610a49565b9050610aba6020830186610a82565b610ac76040830185610a82565b610ad460608301846107c0565b95945050505050565b6000602082019050610af26000830184610a82565b92915050565b60006020820190508181036000830152610b128184610a49565b905092915050565b600081519050610b298161094e565b92915050565b60008060408385031215610b4657610b456107f4565b5b6000610b5485828601610b1a565b9250506020610b6585828601610b1a565b9150509250929050565b7f4e487b7100000000000000000000000000000000000000000000000000000000600052602260045260246000fd5b60006002820490506001821680610bb657607f821691505b602082108103610bc957610bc8610b6f565b5b50919050565b60008190508160005260206000209050919050565b60006020601f8301049050919050565b600082821b905092915050565b600060088302610c317fffffffffffffffffffffffffffffffffffffffffffffffffffffffffffffffff82610bf4565b610c3b8683610bf4565b95508019841693508086168417925050509392505050565b6000819050919050565b6000610c78610c73610c6e84610944565b610c53565b610944565b9050919050565b6000819050919050565b610c9283610c5d565b610ca6610c9e82610c7f565b848454610c01565b825550505050565b600090565b610cbb610cae565b610cc6818484610c89565b505050565b5b81811015610cea57610cdf600082610cb3565b600181019050610ccc565b5050565b601f821115610d2f57610d0081610bcf565b610d0984610be4565b81016020851015610d18578190505b610d2c610d2485610be4565b830182610ccb565b50505b505050565b600082821c905092915050565b6000610d5260001984600802610d34565b1980831691505092915050565b6000610d6b8383610d41565b9150826002028217905092915050565b610d8482610a03565b67ffffffffffffffff811115610d9d57610d9c610819565b5b610da78254610b9e565b610db2828285610cee565b600060209050601f831160018114610de55760008415610dd3578287015190505b610ddd8582610d5f565b865550610e45565b601f198416610df386610bcf565b60005b82811015610e1b57848901518255600182019150602085019450602081019050610df6565b86831015610e385784890151610e34601f891682610d41565b8355505b6001600288020188555050505b505050505050565b60006060820190508181036000830152610e678186610a49565b9050610e766020830185610a82565b610e836040830184610a82565b949350505050565b600081905092915050565b7f54656d7065726174757265203d20000000000000000000000000000000000000600082015250565b6000610ecc600e83610e8b565b9150610ed782610e96565b600e82019050919050565b6000610eed82610a03565b610ef78185610e8b565b9350610f07818560208601610a1f565b80840191505092915050565b7f4300000000000000000000000000000000000000000000000000000000000000600082015250565b6000610f49600183610e8b565b9150610f5482610f13565b600182019050919050565b6000610f6a82610ebf565b9150610f768284610ee2565b9150610f8182610f3c565b915081905092915050565b7f54656d706572617475726556696f6c6174696f6e000000000000000000000000600082015250565b6000610fc2601483610a0e565b9150610fcd82610f8c565b602082019050919050565b6000608082019050610fed60008301866107c0565b8181036020830152610fff8185610a49565b9050818103604083015261101281610fb5565b905081810360608301526110268184610a49565b9050949350505050565b7f4e487b7100000000000000000000000000000000000000000000000000000000600052603260045260246000fd5b7f4e487b7100000000000000000000000000000000000000000000000000000000600052601160045260246000fd5b600061109982610944565b91507fffffffffffffffffffffffffffffffffffffffffffffffffffffffffffffffff82036110cb576110ca61105f565b5b600182019050919050565b7f4e487b7100000000000000000000000000000000000000000000000000000000600052601260045260246000fd5b600061111082610944565b915061111b83610944565b92508261112b5761112a6110d6565b5b828204905092915050565b600061114182610944565b915061114c83610944565b92508261115c5761115b6110d6565b5b828206905092915050565b600061117282610944565b915061117d83610944565b92508282019050808211156111955761119461105f565b5b92915050565b60006111a682610944565b9150600082036111b9576111b861105f565b5b60018203905091905056fea264697066735822122011207a8ea601d63e0d948d13d179b6d061a5e93cb1ca45a13364f52a025b901e64736f6c63430008140033",
  "linkReferences": {},
  "deployedLinkReferences": {}
}