{
  "_format": "hh-sol-artifact-1",
  "contractName": "RoleManager",
  "sourceName": "contracts/roleManager.sol",
  "abi": [
    {
      "inputs": [],
      "stateMutability": "nonpayable",
      "type": "constructor"
    },
    {
      "inputs": [
        {
          "internalType": "string",
          "name": "",
          "type": "string"
        },
        {
          "internalType": "uint256",
          "name": "",
          "type": "uint256"
        }
      ],
      "name": "batchEvents",
      "outputs": [
        {
          "internalType": "string",
          "name": "eventType",
          "type": "string"
        },
        {
          "internalType": "string",
          "name": "metadata",
          "type": "string"
        },
        {
          "internalType": "uint256",
          "name": "timestamp",
          "type": "uint256"
        },
        {
          "internalType": "enum RoleManager.Role",
          "name": "actorRole",
          "type": "uint8"
        },
        {
          "internalType": "address",
          "name": "actor",
          "type": "address"
        }
      ],
      "stateMutability": "view",
      "type": "function"
    },
    {
      "inputs": [
        {
          "internalType": "string",
          "name": "",
          "type": "string"
        }
      ],
      "name": "batches",
      "outputs": [
        {
          "internalType": "bool",
          "name": "exists",
          "type": "bool"
        },
        {
          "internalType": "address",
          "name": "owner",
          "type": "address"
        },
        {
          "internalType": "uint256",
          "name": "tempMin",
          "type": "uint256"
        },
        {
          "internalType": "uint256",
          "name": "tempMax",
          "type": "uint256"
        }
      ],
      "stateMutability": "view",
      "type": "function"
    },
    {
      "inputs": [
        {
          "internalType": "string",
          "name": "batchId",
          "type": "string"
        }
      ],
      "name": "getBatchTempRange",
      "outputs": [
        {
          "internalType": "uint256",
          "name": "",
          "type": "uint256"
        },
        {
          "internalType": "uint256",
          "name": "",
          "type": "uint256"
        }
      ],
      "stateMutability": "view",
      "type": "function"
    },
    {
      "inputs": [
        {
          "internalType": "string",
          "name": "batchId",
          "type": "string"
        }
      ],
      "name": "getEvents",
      "outputs": [
        {
          "components": [
            {
              "internalType": "string",
              "name": "eventType",
              "type": "string"
            },
            {
              "internalType": "string",
              "name": "metadata",
              "type": "string"
            },
            {
              "internalType": "uint256",
              "name": "timestamp",
              "type": "uint256"
            },
            {
              "internalType": "enum RoleManager.Role",
              "name": "actorRole",
              "type": "uint8"
            },
            {
              "internalType": "address",
              "name": "actor",
              "type": "address"
            }
          ],
          "internalType": "struct RoleManager.BatchEvent[]",
          "name": "",
          "type": "tuple[]"
        }
      ],
      "stateMutability": "view",
      "type": "function"
    },
    {
      "inputs": [
        {
          "internalType": "address",
          "name": "user",
          "type": "address"
        }
      ],
      "name": "getRole",
      "outputs": [
        {
          "internalType": "enum RoleManager.Role",
          "name": "",
          "type": "uint8"
        }
      ],
      "stateMutability": "view",
      "type": "function"
    },
    {
      "inputs": [],
      "name": "owner",
      "outputs": [
        {
          "internalType": "address",
          "name": "",
          "type": "address"
        }
      ],
      "stateMutability": "view",
      "type": "function"
    },
    {
      "inputs": [
        {
          "internalType": "address",
          "name": "reporter",
          "type": "address"
        },
        {
          "internalType": "string",
          "name": "batchId",
          "type": "string"
        },
        {
          "internalType": "string",
          "name": "eventType",
          "type": "string"
        },
        {
          "internalType": "string",
          "name": "metadata",
          "type": "string"
        }
      ],
      "name": "recordEvent",
      "outputs": [],
      "stateMutability": "nonpayable",
      "type": "function"
    },
    {
      "inputs": [
        {
          "internalType": "address",
          "name": "user",
          "type": "address"
        },
        {
          "internalType": "enum RoleManager.Role",
          "name": "role",
          "type": "uint8"
        }
      ],
      "name": "registerActor",
      "outputs": [],
      "stateMutability": "nonpayable",
      "type": "function"
    },
    {
      "inputs": [
        {
          "internalType": "string",
          "name": "batchId",
          "type": "string"
        },
        {
          "internalType": "uint256",
          "name": "tempMin",
          "type": "uint256"
        },
        {
          "internalType": "uint256",
          "name": "tempMax",
          "type": "uint256"
        }
      ],
      "name": "registerBatch",
      "outputs": [],
      "stateMutability": "nonpayable",
      "type": "function"
    },
    {
      "inputs": [
        {
          "internalType": "address",
          "name": "",
          "type": "address"
        }
      ],
      "name": "roles",
      "outputs": [
        {
          "internalType": "enum RoleManager.Role",
          "name": "",
          "type": "uint8"
        }
      ],
      "stateMutability": "view",
      "type": "function"
    }
  ],
  "bytecode": "0x608060405234801561001057600080fd5b5033600360006101000a81548173ffffffffffffffffffffffffffffffffffffffff021916908373ffffffffffffffffffffffffffffffffffffffff160217905550611e49806100616000396000f3fe608060405234801561001057600080fd5b506004361061009e5760003560e01c80638da5cb5b116100665780638da5cb5b1461018757806399374642146101a5578063b457d961146101d5578063de7ac991146101f1578063f80e1a3c1461020d5761009e565b80632dd961fb146100a357806344276733146100bf5780634859ffb9146100ef578063489139c6146101235780637ef1446a14610154575b600080fd5b6100bd60048036038101906100b891906110d7565b61023d565b005b6100d960048036038101906100d491906111a4565b61047d565b6040516100e69190611248565b60405180910390f35b61010960048036038101906101049190611263565b6104d2565b60405161011a95949392919061135c565b60405180910390f35b61013d600480360381019061013891906113bd565b610678565b60405161014b929190611406565b60405180910390f35b61016e600480360381019061016991906113bd565b6107b1565b60405161017e949392919061144a565b60405180910390f35b61018f610824565b60405161019c919061148f565b60405180910390f35b6101bf60048036038101906101ba91906111a4565b61084a565b6040516101cc9190611248565b60405180910390f35b6101ef60048036038101906101ea91906114aa565b61086a565b005b61020b6004803603810190610206919061158a565b610b3a565b005b610227600480360381019061022291906113bd565b610c9b565b6040516102349190611780565b60405180910390f35b6001806003811115610252576102516111d1565b5b6000803373ffffffffffffffffffffffffffffffffffffffff1673ffffffffffffffffffffffffffffffffffffffff16815260200190815260200160002060009054906101000a900460ff1660038111156102b0576102af6111d1565b5b146102f0576040517f08c379a00000000000000000000000000000000000000000000000000000000081526004016102e7906117ee565b60405180910390fd5b600284604051610300919061184a565b908152602001604051809103902060000160009054906101000a900460ff161561035f576040517f08c379a0000000000000000000000000000000000000000000000000000000008152600401610356906118ad565b60405180910390fd5b8183106103a1576040517f08c379a000000000000000000000000000000000000000000000000000000000815260040161039890611919565b60405180910390fd5b60405180608001604052806001151581526020013373ffffffffffffffffffffffffffffffffffffffff168152602001848152602001838152506002856040516103eb919061184a565b908152602001604051809103902060008201518160000160006101000a81548160ff02191690831515021790555060208201518160000160016101000a81548173ffffffffffffffffffffffffffffffffffffffff021916908373ffffffffffffffffffffffffffffffffffffffff160217905550604082015181600101556060820151816002015590505050505050565b60008060008373ffffffffffffffffffffffffffffffffffffffff1673ffffffffffffffffffffffffffffffffffffffff16815260200190815260200160002060009054906101000a900460ff169050919050565b600182805160208101820180518482526020830160208501208183528095505050505050818154811061050457600080fd5b90600052602060002090600402016000915091505080600001805461052890611968565b80601f016020809104026020016040519081016040528092919081815260200182805461055490611968565b80156105a15780601f10610576576101008083540402835291602001916105a1565b820191906000526020600020905b81548152906001019060200180831161058457829003601f168201915b5050505050908060010180546105b690611968565b80601f01602080910402602001604051908101604052809291908181526020018280546105e290611968565b801561062f5780601f106106045761010080835404028352916020019161062f565b820191906000526020600020905b81548152906001019060200180831161061257829003601f168201915b5050505050908060020154908060030160009054906101000a900460ff16908060030160019054906101000a900473ffffffffffffffffffffffffffffffffffffffff16905085565b6000808260028160405161068c919061184a565b908152602001604051809103902060000160009054906101000a900460ff166106ea576040517f08c379a00000000000000000000000000000000000000000000000000000000081526004016106e1906119e5565b60405180910390fd5b60006002856040516106fc919061184a565b90815260200160405180910390206040518060800160405290816000820160009054906101000a900460ff161515151581526020016000820160019054906101000a900473ffffffffffffffffffffffffffffffffffffffff1673ffffffffffffffffffffffffffffffffffffffff1673ffffffffffffffffffffffffffffffffffffffff16815260200160018201548152602001600282015481525050905080604001518160600151935093505050915091565b6002818051602081018201805184825260208301602085012081835280955050505050506000915090508060000160009054906101000a900460ff16908060000160019054906101000a900473ffffffffffffffffffffffffffffffffffffffff16908060010154908060020154905084565b600360009054906101000a900473ffffffffffffffffffffffffffffffffffffffff1681565b60006020528060005260406000206000915054906101000a900460ff1681565b8260028160405161087b919061184a565b908152602001604051809103902060000160009054906101000a900460ff166108d9576040517f08c379a00000000000000000000000000000000000000000000000000000000081526004016108d0906119e5565b60405180910390fd5b60008060008773ffffffffffffffffffffffffffffffffffffffff1673ffffffffffffffffffffffffffffffffffffffff16815260200190815260200160002060009054906101000a900460ff1690506001600381111561093d5761093c6111d1565b5b8160038111156109505761094f6111d1565b5b148061098057506002600381111561096b5761096a6111d1565b5b81600381111561097e5761097d6111d1565b5b145b806109ae5750600380811115610999576109986111d1565b5b8160038111156109ac576109ab6111d1565b5b145b6109ed576040517f08c379a00000000000000000000000000000000000000000000000000000000081526004016109e490611a77565b60405180910390fd5b6001856040516109fd919061184a565b90815260200160405180910390206040518060a00160405280868152602001858152602001428152602001836003811115610a3b57610a3a6111d1565b5b81526020013373ffffffffffffffffffffffffffffffffffffffff1681525090806001815401808255809150506001900390600052602060002090600402016000909190919091506000820151816000019081610a989190611c43565b506020820151816001019081610aae9190611c43565b506040820151816002015560608201518160030160006101000a81548160ff02191690836003811115610ae457610ae36111d1565b5b021790555060808201518160030160016101000a81548173ffffffffffffffffffffffffffffffffffffffff021916908373ffffffffffffffffffffffffffffffffffffffff1602179055505050505050505050565b600360009054906101000a900473ffffffffffffffffffffffffffffffffffffffff1673ffffffffffffffffffffffffffffffffffffffff163373ffffffffffffffffffffffffffffffffffffffff1614610bca576040517f08c379a0000000000000000000000000000000000000000000000000000000008152600401610bc190611d87565b60405180910390fd5b60006003811115610bde57610bdd6111d1565b5b816003811115610bf157610bf06111d1565b5b03610c31576040517f08c379a0000000000000000000000000000000000000000000000000000000008152600401610c2890611df3565b60405180910390fd5b806000808473ffffffffffffffffffffffffffffffffffffffff1673ffffffffffffffffffffffffffffffffffffffff16815260200190815260200160002060006101000a81548160ff02191690836003811115610c9257610c916111d1565b5b02179055505050565b606081600281604051610cae919061184a565b908152602001604051809103902060000160009054906101000a900460ff16610d0c576040517f08c379a0000000000000000000000000000000000000000000000000000000008152600401610d03906119e5565b60405180910390fd5b600183604051610d1c919061184a565b9081526020016040518091039020805480602002602001604051908101604052809291908181526020016000905b82821015610f3b57838290600052602060002090600402016040518060a0016040529081600082018054610d7d90611968565b80601f0160208091040260200160405190810160405280929190818152602001828054610da990611968565b8015610df65780601f10610dcb57610100808354040283529160200191610df6565b820191906000526020600020905b815481529060010190602001808311610dd957829003601f168201915b50505050508152602001600182018054610e0f90611968565b80601f0160208091040260200160405190810160405280929190818152602001828054610e3b90611968565b8015610e885780601f10610e5d57610100808354040283529160200191610e88565b820191906000526020600020905b815481529060010190602001808311610e6b57829003601f168201915b50505050508152602001600282015481526020016003820160009054906101000a900460ff166003811115610ec057610ebf6111d1565b5b6003811115610ed257610ed16111d1565b5b81526020016003820160019054906101000a900473ffffffffffffffffffffffffffffffffffffffff1673ffffffffffffffffffffffffffffffffffffffff1673ffffffffffffffffffffffffffffffffffffffff168152505081526020019060010190610d4a565b50505050915050919050565b6000604051905090565b600080fd5b600080fd5b600080fd5b600080fd5b6000601f19601f8301169050919050565b7f4e487b7100000000000000000000000000000000000000000000000000000000600052604160045260246000fd5b610fae82610f65565b810181811067ffffffffffffffff82111715610fcd57610fcc610f76565b5b80604052505050565b6000610fe0610f47565b9050610fec8282610fa5565b919050565b600067ffffffffffffffff82111561100c5761100b610f76565b5b61101582610f65565b9050602081019050919050565b82818337600083830152505050565b600061104461103f84610ff1565b610fd6565b9050828152602081018484840111156110605761105f610f60565b5b61106b848285611022565b509392505050565b600082601f83011261108857611087610f5b565b5b8135611098848260208601611031565b91505092915050565b6000819050919050565b6110b4816110a1565b81146110bf57600080fd5b50565b6000813590506110d1816110ab565b92915050565b6000806000606084860312156110f0576110ef610f51565b5b600084013567ffffffffffffffff81111561110e5761110d610f56565b5b61111a86828701611073565b935050602061112b868287016110c2565b925050604061113c868287016110c2565b9150509250925092565b600073ffffffffffffffffffffffffffffffffffffffff82169050919050565b600061117182611146565b9050919050565b61118181611166565b811461118c57600080fd5b50565b60008135905061119e81611178565b92915050565b6000602082840312156111ba576111b9610f51565b5b60006111c88482850161118f565b91505092915050565b7f4e487b7100000000000000000000000000000000000000000000000000000000600052602160045260246000fd5b60048110611211576112106111d1565b5b50565b600081905061122282611200565b919050565b600061123282611214565b9050919050565b61124281611227565b82525050565b600060208201905061125d6000830184611239565b92915050565b6000806040838503121561127a57611279610f51565b5b600083013567ffffffffffffffff81111561129857611297610f56565b5b6112a485828601611073565b92505060206112b5858286016110c2565b9150509250929050565b600081519050919050565b600082825260208201905092915050565b60005b838110156112f95780820151818401526020810190506112de565b60008484015250505050565b6000611310826112bf565b61131a81856112ca565b935061132a8185602086016112db565b61133381610f65565b840191505092915050565b611347816110a1565b82525050565b61135681611166565b82525050565b600060a08201905081810360008301526113768188611305565b9050818103602083015261138a8187611305565b9050611399604083018661133e565b6113a66060830185611239565b6113b3608083018461134d565b9695505050505050565b6000602082840312156113d3576113d2610f51565b5b600082013567ffffffffffffffff8111156113f1576113f0610f56565b5b6113fd84828501611073565b91505092915050565b600060408201905061141b600083018561133e565b611428602083018461133e565b9392505050565b60008115159050919050565b6114448161142f565b82525050565b600060808201905061145f600083018761143b565b61146c602083018661134d565b611479604083018561133e565b611486606083018461133e565b95945050505050565b60006020820190506114a4600083018461134d565b92915050565b600080600080608085870312156114c4576114c3610f51565b5b60006114d28782880161118f565b945050602085013567ffffffffffffffff8111156114f3576114f2610f56565b5b6114ff87828801611073565b935050604085013567ffffffffffffffff8111156115205761151f610f56565b5b61152c87828801611073565b925050606085013567ffffffffffffffff81111561154d5761154c610f56565b5b61155987828801611073565b91505092959194509250565b6004811061157257600080fd5b50565b60008135905061158481611565565b92915050565b600080604083850312156115a1576115a0610f51565b5b60006115af8582860161118f565b92505060206115c085828601611575565b9150509250929050565b600081519050919050565b600082825260208201905092915050565b6000819050602082019050919050565b600082825260208201905092915050565b6000611612826112bf565b61161c81856115f6565b935061162c8185602086016112db565b61163581610f65565b840191505092915050565b611649816110a1565b82525050565b61165881611227565b82525050565b61166781611166565b82525050565b600060a083016000830151848203600086015261168a8282611607565b915050602083015184820360208601526116a48282611607565b91505060408301516116b96040860182611640565b5060608301516116cc606086018261164f565b5060808301516116df608086018261165e565b508091505092915050565b60006116f6838361166d565b905092915050565b6000602082019050919050565b6000611716826115ca565b61172081856115d5565b935083602082028501611732856115e6565b8060005b8581101561176e578484038952815161174f85826116ea565b945061175a836116fe565b925060208a01995050600181019050611736565b50829750879550505050505092915050565b6000602082019050818103600083015261179a818461170b565b905092915050565b7f4163636573732064656e69656420666f72207468697320726f6c650000000000600082015250565b60006117d8601b836112ca565b91506117e3826117a2565b602082019050919050565b60006020820190508181036000830152611807816117cb565b9050919050565b600081905092915050565b6000611824826112bf565b61182e818561180e565b935061183e8185602086016112db565b80840191505092915050565b60006118568284611819565b915081905092915050565b7f426174636820616c726561647920657869737473000000000000000000000000600082015250565b60006118976014836112ca565b91506118a282611861565b602082019050919050565b600060208201905081810360008301526118c68161188a565b9050919050565b7f496e76616c69642074656d70657261747572652072616e676500000000000000600082015250565b60006119036019836112ca565b915061190e826118cd565b602082019050919050565b60006020820190508181036000830152611932816118f6565b9050919050565b7f4e487b7100000000000000000000000000000000000000000000000000000000600052602260045260246000fd5b6000600282049050600182168061198057607f821691505b60208210810361199357611992611939565b5b50919050565b7f426174636820646f6573206e6f74206578697374000000000000000000000000600082015250565b60006119cf6014836112ca565b91506119da82611999565b602082019050919050565b600060208201905081810360008301526119fe816119c2565b9050919050565b7f4f6e6c7920617574686f72697a656420726f6c65732063616e207265636f726460008201527f206576656e747300000000000000000000000000000000000000000000000000602082015250565b6000611a616027836112ca565b9150611a6c82611a05565b604082019050919050565b60006020820190508181036000830152611a9081611a54565b9050919050565b60008190508160005260206000209050919050565b60006020601f8301049050919050565b600082821b905092915050565b600060088302611af97fffffffffffffffffffffffffffffffffffffffffffffffffffffffffffffffff82611abc565b611b038683611abc565b95508019841693508086168417925050509392505050565b6000819050919050565b6000611b40611b3b611b36846110a1565b611b1b565b6110a1565b9050919050565b6000819050919050565b611b5a83611b25565b611b6e611b6682611b47565b848454611ac9565b825550505050565b600090565b611b83611b76565b611b8e818484611b51565b505050565b5b81811015611bb257611ba7600082611b7b565b600181019050611b94565b5050565b601f821115611bf757611bc881611a97565b611bd184611aac565b81016020851015611be0578190505b611bf4611bec85611aac565b830182611b93565b50505b505050565b600082821c905092915050565b6000611c1a60001984600802611bfc565b1980831691505092915050565b6000611c338383611c09565b9150826002028217905092915050565b611c4c826112bf565b67ffffffffffffffff811115611c6557611c64610f76565b5b611c6f8254611968565b611c7a828285611bb6565b600060209050601f831160018114611cad5760008415611c9b578287015190505b611ca58582611c27565b865550611d0d565b601f198416611cbb86611a97565b60005b82811015611ce357848901518255600182019150602085019450602081019050611cbe565b86831015611d005784890151611cfc601f891682611c09565b8355505b6001600288020188555050505b505050505050565b7f4f6e6c7920636f6e7472616374206f776e65722063616e20706572666f726d2060008201527f7468697300000000000000000000000000000000000000000000000000000000602082015250565b6000611d716024836112ca565b9150611d7c82611d15565b604082019050919050565b60006020820190508181036000830152611da081611d64565b9050919050565b7f43616e6e6f742061737369676e204e4f4e4520726f6c65000000000000000000600082015250565b6000611ddd6017836112ca565b9150611de882611da7565b602082019050919050565b60006020820190508181036000830152611e0c81611dd0565b905091905056fea26469706673582212205a34f6c441031df3111917ff4a3f6dff8a6789672f595e65a3694a2afed7ec3564736f6c63430008140033",
  "linkReferences": {},
  "deployedLinkReferences": {}
}